S0100000375365676D656E742E737265630A
S11300000C942A000C943F000C943F000C943F0085
S11300100C943F000C943F000C943F000C943F0060
S11300200C943F000C943F000C943F000C943F0050
S11300300C943F000C943F000C943F000C943F0040
S11300400C943F000C943F000C943F000C943F0030
S11300500C943F0011241FBECFE5D8E0DEBFCDBF16
S113006010E0A0E6B0E0EEEAF1E002C005900D92E7
S1130070AA36B107D9F70E9453000C94D5000C940A
S113008000000E944C000895E62FF0E0E05AFF4F74
S113009060810E945000089561E00E949D000895CF
S11300A00E94B900089582E00E94410083E00E940A
S11300B0410081E00E944C0060E082E00E94440024
S11300C060E083E00E944400E12CF12C01E810E0A0
S11300D0C0E0D0E0B8010C2E02C0759567950A9473
S11300E0E2F7C8010C2E02C0880F991F0A94E2F7A8
S11300F0682B81E00E9450008FE79AE126E081504E
S113010090402040E1F700C000002196C430D105A2
S113011009F7F3948AE0F81202C0E394F12C9AE010
S1130120E91202C0E12CF12C6F2D82E00E94440000
S11301306E2D83E00E944400CBCF613009F46FEF51
S1130140823061F018F4813031F011C0833049F00D
S1130150843051F00CC06ABB80E0089567BB80E036
S1130160089564BB80E0089561BB80E0089581E058
S11301700895613009F46FEF823061F018F4813032
S113018031F011C0833049F0843051F00CC06BBBA6
S113019080E0089568BB80E0089565BB80E0089521
S11101A062BB80E0089581E00895F894FFCFDB
S10D01AEC0F9A4B0999282F8809081
S9030000FC
